{
  "contractName": "plowSmartContract",
  "abi": [
    {
      "inputs": [],
      "stateMutability": "nonpayable",
      "type": "constructor"
    },
    {
      "anonymous": false,
      "inputs": [
        {
          "indexed": false,
          "internalType": "string",
          "name": "_errMsg",
          "type": "string"
        },
        {
          "indexed": false,
          "internalType": "uint256",
          "name": "_department",
          "type": "uint256"
        }
      ],
      "name": "setDepartmentError",
      "type": "event"
    },
    {
      "inputs": [
        {
          "internalType": "address",
          "name": "",
          "type": "address"
        }
      ],
      "name": "Address_PW",
      "outputs": [
        {
          "internalType": "uint256",
          "name": "",
          "type": "uint256"
        }
      ],
      "stateMutability": "view",
      "type": "function"
    },
    {
      "inputs": [
        {
          "internalType": "address",
          "name": "",
          "type": "address"
        }
      ],
      "name": "balances",
      "outputs": [
        {
          "internalType": "uint256",
          "name": "",
          "type": "uint256"
        }
      ],
      "stateMutability": "view",
      "type": "function"
    },
    {
      "inputs": [
        {
          "internalType": "uint256",
          "name": "",
          "type": "uint256"
        }
      ],
      "name": "certificateOwner",
      "outputs": [
        {
          "internalType": "address",
          "name": "",
          "type": "address"
        }
      ],
      "stateMutability": "view",
      "type": "function"
    },
    {
      "inputs": [
        {
          "internalType": "address",
          "name": "",
          "type": "address"
        }
      ],
      "name": "only_use_balances",
      "outputs": [
        {
          "internalType": "uint256",
          "name": "",
          "type": "uint256"
        }
      ],
      "stateMutability": "view",
      "type": "function"
    },
    {
      "inputs": [
        {
          "internalType": "address",
          "name": "",
          "type": "address"
        },
        {
          "internalType": "uint256",
          "name": "",
          "type": "uint256"
        }
      ],
      "name": "ownedCerts",
      "outputs": [
        {
          "internalType": "string",
          "name": "name",
          "type": "string"
        },
        {
          "internalType": "string",
          "name": "id",
          "type": "string"
        },
        {
          "internalType": "string",
          "name": "bloodType",
          "type": "string"
        },
        {
          "internalType": "string",
          "name": "home_address",
          "type": "string"
        },
        {
          "internalType": "string",
          "name": "certificateNum",
          "type": "string"
        },
        {
          "internalType": "string",
          "name": "donateType",
          "type": "string"
        },
        {
          "internalType": "uint256",
          "name": "date",
          "type": "uint256"
        }
      ],
      "stateMutability": "view",
      "type": "function"
    },
    {
      "inputs": [
        {
          "internalType": "address",
          "name": "_userAddress",
          "type": "address"
        },
        {
          "internalType": "uint256",
          "name": "_department",
          "type": "uint256"
        }
      ],
      "name": "setDepartmentInternal",
      "outputs": [],
      "stateMutability": "nonpayable",
      "type": "function"
    },
    {
      "inputs": [
        {
          "internalType": "uint256",
          "name": "_department",
          "type": "uint256"
        }
      ],
      "name": "setDepartment",
      "outputs": [
        {
          "internalType": "bool",
          "name": "",
          "type": "bool"
        }
      ],
      "stateMutability": "nonpayable",
      "type": "function"
    },
    {
      "inputs": [
        {
          "internalType": "address",
          "name": "_userAddress",
          "type": "address"
        },
        {
          "internalType": "uint256",
          "name": "_department",
          "type": "uint256"
        }
      ],
      "name": "AdminSetDepartment",
      "outputs": [
        {
          "internalType": "bool",
          "name": "",
          "type": "bool"
        }
      ],
      "stateMutability": "nonpayable",
      "type": "function"
    },
    {
      "inputs": [
        {
          "internalType": "address",
          "name": "_userAddress",
          "type": "address"
        }
      ],
      "name": "getDepartment",
      "outputs": [
        {
          "internalType": "uint256",
          "name": "",
          "type": "uint256"
        }
      ],
      "stateMutability": "view",
      "type": "function"
    },
    {
      "inputs": [
        {
          "internalType": "string",
          "name": "_name",
          "type": "string"
        },
        {
          "internalType": "string",
          "name": "_id",
          "type": "string"
        },
        {
          "internalType": "string",
          "name": "_bloodType",
          "type": "string"
        },
        {
          "internalType": "string",
          "name": "_home_address",
          "type": "string"
        },
        {
          "internalType": "string",
          "name": "_certificateNum",
          "type": "string"
        },
        {
          "internalType": "string",
          "name": "_donateType",
          "type": "string"
        }
      ],
      "name": "createCertificate",
      "outputs": [
        {
          "internalType": "bool",
          "name": "",
          "type": "bool"
        }
      ],
      "stateMutability": "nonpayable",
      "type": "function"
    },
    {
      "inputs": [
        {
          "internalType": "address",
          "name": "_userAddress",
          "type": "address"
        }
      ],
      "name": "getCertificateCount",
      "outputs": [
        {
          "internalType": "uint256",
          "name": "",
          "type": "uint256"
        }
      ],
      "stateMutability": "view",
      "type": "function"
    },
    {
      "inputs": [
        {
          "internalType": "address",
          "name": "_userAddress",
          "type": "address"
        }
      ],
      "name": "getMintRecordCount",
      "outputs": [
        {
          "internalType": "uint256",
          "name": "",
          "type": "uint256"
        }
      ],
      "stateMutability": "view",
      "type": "function"
    },
    {
      "inputs": [
        {
          "internalType": "address",
          "name": "_userAddress",
          "type": "address"
        }
      ],
      "name": "getInquiryRecordCount",
      "outputs": [
        {
          "internalType": "uint256",
          "name": "",
          "type": "uint256"
        }
      ],
      "stateMutability": "view",
      "type": "function"
    },
    {
      "inputs": [
        {
          "internalType": "address",
          "name": "_userAddress",
          "type": "address"
        },
        {
          "internalType": "uint256",
          "name": "_num",
          "type": "uint256"
        },
        {
          "internalType": "uint256",
          "name": "_InquiryPW",
          "type": "uint256"
        }
      ],
      "name": "getCertData",
      "outputs": [
        {
          "components": [
            {
              "internalType": "string",
              "name": "name",
              "type": "string"
            },
            {
              "internalType": "string",
              "name": "id",
              "type": "string"
            },
            {
              "internalType": "string",
              "name": "bloodType",
              "type": "string"
            },
            {
              "internalType": "string",
              "name": "home_address",
              "type": "string"
            },
            {
              "internalType": "string",
              "name": "certificateNum",
              "type": "string"
            },
            {
              "internalType": "string",
              "name": "donateType",
              "type": "string"
            },
            {
              "internalType": "uint256",
              "name": "date",
              "type": "uint256"
            }
          ],
          "internalType": "struct plowSmartContract.Certificate",
          "name": "",
          "type": "tuple"
        }
      ],
      "stateMutability": "view",
      "type": "function"
    },
    {
      "inputs": [
        {
          "internalType": "uint256",
          "name": "_num",
          "type": "uint256"
        }
      ],
      "name": "getMintData",
      "outputs": [
        {
          "components": [
            {
              "internalType": "string",
              "name": "name",
              "type": "string"
            },
            {
              "internalType": "string",
              "name": "id",
              "type": "string"
            },
            {
              "internalType": "string",
              "name": "bloodType",
              "type": "string"
            },
            {
              "internalType": "string",
              "name": "home_address",
              "type": "string"
            },
            {
              "internalType": "string",
              "name": "certificateNum",
              "type": "string"
            },
            {
              "internalType": "string",
              "name": "donateType",
              "type": "string"
            },
            {
              "internalType": "uint256",
              "name": "date",
              "type": "uint256"
            }
          ],
          "internalType": "struct plowSmartContract.Certificate",
          "name": "",
          "type": "tuple"
        }
      ],
      "stateMutability": "view",
      "type": "function"
    },
    {
      "inputs": [],
      "name": "getInquiryData",
      "outputs": [
        {
          "internalType": "address[]",
          "name": "user_inquiryHistory",
          "type": "address[]"
        }
      ],
      "stateMutability": "view",
      "type": "function"
    },
    {
      "inputs": [
        {
          "internalType": "uint256",
          "name": "check_num",
          "type": "uint256"
        }
      ],
      "name": "checkExistence",
      "outputs": [
        {
          "internalType": "bool",
          "name": "",
          "type": "bool"
        }
      ],
      "stateMutability": "pure",
      "type": "function"
    },
    {
      "inputs": [
        {
          "internalType": "address",
          "name": "_to",
          "type": "address"
        },
        {
          "internalType": "uint256",
          "name": "_certificateNum",
          "type": "uint256"
        }
      ],
      "name": "mintCert",
      "outputs": [
        {
          "internalType": "bool",
          "name": "",
          "type": "bool"
        }
      ],
      "stateMutability": "nonpayable",
      "type": "function"
    },
    {
      "inputs": [
        {
          "internalType": "address",
          "name": "_to",
          "type": "address"
        },
        {
          "internalType": "uint256",
          "name": "_Inquiry_PW",
          "type": "uint256"
        }
      ],
      "name": "setInquiryPW",
      "outputs": [
        {
          "internalType": "bool",
          "name": "",
          "type": "bool"
        }
      ],
      "stateMutability": "nonpayable",
      "type": "function"
    },
    {
      "inputs": [
        {
          "internalType": "address",
          "name": "_to",
          "type": "address"
        },
        {
          "internalType": "uint256",
          "name": "_InquiryPW",
          "type": "uint256"
        },
        {
          "internalType": "uint256",
          "name": "_num",
          "type": "uint256"
        }
      ],
      "name": "InquiryTo",
      "outputs": [
        {
          "components": [
            {
              "internalType": "string",
              "name": "name",
              "type": "string"
            },
            {
              "internalType": "string",
              "name": "id",
              "type": "string"
            },
            {
              "internalType": "string",
              "name": "bloodType",
              "type": "string"
            },
            {
              "internalType": "string",
              "name": "home_address",
              "type": "string"
            },
            {
              "internalType": "string",
              "name": "certificateNum",
              "type": "string"
            },
            {
              "internalType": "string",
              "name": "donateType",
              "type": "string"
            },
            {
              "internalType": "uint256",
              "name": "date",
              "type": "uint256"
            }
          ],
          "internalType": "struct plowSmartContract.Certificate",
          "name": "",
          "type": "tuple"
        }
      ],
      "stateMutability": "nonpayable",
      "type": "function"
    },
    {
      "inputs": [
        {
          "internalType": "address",
          "name": "_from",
          "type": "address"
        },
        {
          "internalType": "address",
          "name": "_to",
          "type": "address"
        },
        {
          "internalType": "uint256",
          "name": "_tokenCount",
          "type": "uint256"
        }
      ],
      "name": "transferFrom",
      "outputs": [],
      "stateMutability": "nonpayable",
      "type": "function"
    },
    {
      "inputs": [
        {
          "internalType": "uint256",
          "name": "_num",
          "type": "uint256"
        }
      ],
      "name": "getDonationRecord",
      "outputs": [
        {
          "internalType": "address",
          "name": "to",
          "type": "address"
        },
        {
          "internalType": "uint256",
          "name": "DonateTime",
          "type": "uint256"
        },
        {
          "internalType": "uint256",
          "name": "tokenCount",
          "type": "uint256"
        }
      ],
      "stateMutability": "view",
      "type": "function"
    },
    {
      "inputs": [
        {
          "internalType": "address",
          "name": "_userAddress",
          "type": "address"
        }
      ],
      "name": "getDonationCount",
      "outputs": [
        {
          "internalType": "uint256",
          "name": "",
          "type": "uint256"
        }
      ],
      "stateMutability": "view",
      "type": "function"
    }
  ],
  "bytecode": "0x608060405234801561001057600080fd5b50336000806101000a81548173ffffffffffffffffffffffffffffffffffffffff021916908373ffffffffffffffffffffffffffffffffffffffff160217905550614384806100606000396000f3fe608060405234801561001057600080fd5b506004361061014d5760003560e01c8063b521159f116100c3578063d082de661161007c578063d082de6614610462578063d5693bd914610492578063df89f241146104c2578063e44ad8d0146104f2578063f15230e814610510578063f922e6ad146105405761014d565b8063b521159f14610356578063c522bcab14610386578063c6ba93b1146103b6578063c9d3cbbf146103e6578063cd6e57ee14610402578063cdc42461146104325761014d565b806345ccd5841161011557806345ccd5841461023057806373f1642514610260578063a268640314610290578063acb6d626146102c6578063afb07257146102f6578063b1d5ccf8146103265761014d565b8063144a2962146101525780631a85ac4d1461018257806323b872dd146101b257806327e235e3146101ce5780633dad7d4c146101fe575b600080fd5b61016c60048036038101906101679190612da1565b610570565b6040516101799190612de9565b60405180910390f35b61019c60048036038101906101979190612e62565b610626565b6040516101a99190612de9565b60405180910390f35b6101cc60048036038101906101c79190612ea2565b610c3b565b005b6101e860048036038101906101e39190612ef5565b6110d7565b6040516101f59190612f31565b60405180910390f35b61021860048036038101906102139190612da1565b6110ef565b60405161022793929190612f5b565b60405180910390f35b61024a60048036038101906102459190612ef5565b611239565b6040516102579190612f31565b60405180910390f35b61027a60048036038101906102759190612da1565b611251565b60405161028791906130f0565b60405180910390f35b6102aa60048036038101906102a59190612e62565b611868565b6040516102bd979695949392919061315c565b60405180910390f35b6102e060048036038101906102db9190612e62565b611bf7565b6040516102ed9190612de9565b60405180910390f35b610310600480360381019061030b9190612da1565b611cae565b60405161031d9190612de9565b60405180910390f35b610340600480360381019061033b9190612ef5565b611ccb565b60405161034d9190612f31565b60405180910390f35b610370600480360381019061036b91906131f5565b611d1c565b60405161037d91906130f0565b60405180910390f35b6103a0600480360381019061039b9190612ef5565b6123f0565b6040516103ad9190612f31565b60405180910390f35b6103d060048036038101906103cb9190612e62565b612441565b6040516103dd9190612de9565b60405180910390f35b61040060048036038101906103fb9190612e62565b6124ff565b005b61041c60048036038101906104179190612ef5565b612547565b6040516104299190612f31565b60405180910390f35b61044c60048036038101906104479190612ef5565b612598565b6040516104599190612f31565b60405180910390f35b61047c6004803603810190610477919061337d565b6125e9565b6040516104899190612de9565b60405180910390f35b6104ac60048036038101906104a79190612ef5565b6126c4565b6040516104b99190612f31565b60405180910390f35b6104dc60048036038101906104d791906131f5565b6126dc565b6040516104e991906130f0565b60405180910390f35b6104fa6128ac565b6040516105079190613570565b60405180910390f35b61052a60048036038101906105259190612da1565b6129fa565b6040516105379190613592565b60405180910390f35b61055a60048036038101906105559190612ef5565b612a2d565b6040516105679190612f31565b60405180910390f35b60003073ffffffffffffffffffffffffffffffffffffffff1663c9d3cbbf33846040518363ffffffff1660e01b81526004016105ad9291906135ad565b600060405180830381600087803b1580156105c757600080fd5b505af19250505080156105d8575060015b61061c577ff656b7aca913b35f16b5e5d40d766e8a297da46e3ae3a927ffb25783bd8f70118260405161060b9190613622565b60405180910390a160009050610621565b600190505b919050565b6000338073ffffffffffffffffffffffffffffffffffffffff163373ffffffffffffffffffffffffffffffffffffffff16036106e3576000600660008373ffffffffffffffffffffffffffffffffffffffff1673ffffffffffffffffffffffffffffffffffffffff16815260200190815260200160002054116106de576040517f08c379a00000000000000000000000000000000000000000000000000000000081526004016106d5906136c2565b60405180910390fd5b610766565b6000600660008373ffffffffffffffffffffffffffffffffffffffff1673ffffffffffffffffffffffffffffffffffffffff1681526020019081526020016000205411610765576040517f08c379a000000000000000000000000000000000000000000000000000000000815260040161075c90613754565b60405180910390fd5b5b838073ffffffffffffffffffffffffffffffffffffffff163373ffffffffffffffffffffffffffffffffffffffff1603610821576000600660008373ffffffffffffffffffffffffffffffffffffffff1673ffffffffffffffffffffffffffffffffffffffff168152602001908152602001600020541161081c576040517f08c379a0000000000000000000000000000000000000000000000000000000008152600401610813906136c2565b60405180910390fd5b6108a4565b6000600660008373ffffffffffffffffffffffffffffffffffffffff1673ffffffffffffffffffffffffffffffffffffffff16815260200190815260200160002054116108a3576040517f08c379a000000000000000000000000000000000000000000000000000000000815260040161089a90613754565b60405180910390fd5b5b6108be600760010180546108b7906137a3565b9050611cae565b6108fd576040517f08c379a00000000000000000000000000000000000000000000000000000000081526004016108f490613820565b60405180910390fd5b6003600660003373ffffffffffffffffffffffffffffffffffffffff1673ffffffffffffffffffffffffffffffffffffffff168152602001908152602001600020541461097f576040517f08c379a0000000000000000000000000000000000000000000000000000000008152600401610976906138b2565b60405180910390fd5b846001600086815260200190815260200160002060006101000a81548173ffffffffffffffffffffffffffffffffffffffff021916908373ffffffffffffffffffffffffffffffffffffffff160217905550600260008673ffffffffffffffffffffffffffffffffffffffff1673ffffffffffffffffffffffffffffffffffffffff1681526020019081526020016000206007908060018154018082558091505060019003906000526020600020906007020160009091909190915060008201816000019081610a4f9190613a94565b5060018201816001019081610a649190613a94565b5060028201816002019081610a799190613a94565b5060038201816003019081610a8e9190613a94565b5060048201816004019081610aa39190613a94565b5060058201816005019081610ab89190613a94565b50600682015481600601555050600360003373ffffffffffffffffffffffffffffffffffffffff1673ffffffffffffffffffffffffffffffffffffffff1681526020019081526020016000206007908060018154018082558091505060019003906000526020600020906007020160009091909190915060008201816000019081610b439190613a94565b5060018201816001019081610b589190613a94565b5060028201816002019081610b6d9190613a94565b5060038201816003019081610b829190613a94565b5060048201816004019081610b979190613a94565b5060058201816005019081610bac9190613a94565b50600682015481600601555050600760008082016000610bcc9190612c86565b600182016000610bdc9190612c86565b600282016000610bec9190612c86565b600382016000610bfc9190612c86565b600482016000610c0c9190612c86565b600582016000610c1c9190612c86565b60068201600090555050610c2f85612bbb565b60019250505092915050565b600073ffffffffffffffffffffffffffffffffffffffff168373ffffffffffffffffffffffffffffffffffffffff1611610c7457600080fd5b600073ffffffffffffffffffffffffffffffffffffffff168273ffffffffffffffffffffffffffffffffffffffff1611610cad57600080fd5b3373ffffffffffffffffffffffffffffffffffffffff168373ffffffffffffffffffffffffffffffffffffffff1614610d1b576040517f08c379a0000000000000000000000000000000000000000000000000000000008152600401610d1290613bc8565b60405180910390fd5b6001600660008473ffffffffffffffffffffffffffffffffffffffff1673ffffffffffffffffffffffffffffffffffffffff1681526020019081526020016000205414610d9d576040517f08c379a0000000000000000000000000000000000000000000000000000000008152600401610d9490613c5a565b60405180910390fd5b80600f60008573ffffffffffffffffffffffffffffffffffffffff1673ffffffffffffffffffffffffffffffffffffffff168152602001908152602001600020541015610e1f576040517f08c379a0000000000000000000000000000000000000000000000000000000008152600401610e1690613cc6565b60405180910390fd5b600f60008373ffffffffffffffffffffffffffffffffffffffff1673ffffffffffffffffffffffffffffffffffffffff1681526020019081526020016000205481600f60008573ffffffffffffffffffffffffffffffffffffffff1673ffffffffffffffffffffffffffffffffffffffff16815260200190815260200160002054610eaa9190613d15565b11610eb457600080fd5b80600f60008573ffffffffffffffffffffffffffffffffffffffff1673ffffffffffffffffffffffffffffffffffffffff16815260200190815260200160002054610eff9190613d49565b600f60008573ffffffffffffffffffffffffffffffffffffffff1673ffffffffffffffffffffffffffffffffffffffff1681526020019081526020016000208190555080601060008473ffffffffffffffffffffffffffffffffffffffff1673ffffffffffffffffffffffffffffffffffffffff16815260200190815260200160002054610f8d9190613d15565b601060008473ffffffffffffffffffffffffffffffffffffffff1673ffffffffffffffffffffffffffffffffffffffff16815260200190815260200160002081905550610fd8612cc6565b60405180606001604052808473ffffffffffffffffffffffffffffffffffffffff168152602001428152602001838152509050600560003373ffffffffffffffffffffffffffffffffffffffff1673ffffffffffffffffffffffffffffffffffffffff16815260200190815260200160002081908060018154018082558091505060019003906000526020600020906003020160009091909190915060008201518160000160006101000a81548173ffffffffffffffffffffffffffffffffffffffff021916908373ffffffffffffffffffffffffffffffffffffffff1602179055506020820151816001015560408201518160020155505050505050565b600f6020528060005260406000206000915090505481565b60008060006110fc612cc6565b611105336123f0565b8510611146576040517f08c379a000000000000000000000000000000000000000000000000000000000815260040161113d90613dc9565b60405180910390fd5b600560003373ffffffffffffffffffffffffffffffffffffffff1673ffffffffffffffffffffffffffffffffffffffff168152602001908152602001600020858154811061119757611196613de9565b5b90600052602060002090600302016040518060600160405290816000820160009054906101000a900473ffffffffffffffffffffffffffffffffffffffff1673ffffffffffffffffffffffffffffffffffffffff1673ffffffffffffffffffffffffffffffffffffffff168152602001600182015481526020016002820154815250509050806000015193508060200151925080604001519150509193909250565b600e6020528060005260406000206000915090505481565b611259612cfd565b338073ffffffffffffffffffffffffffffffffffffffff163373ffffffffffffffffffffffffffffffffffffffff1603611314576000600660008373ffffffffffffffffffffffffffffffffffffffff1673ffffffffffffffffffffffffffffffffffffffff168152602001908152602001600020541161130f576040517f08c379a0000000000000000000000000000000000000000000000000000000008152600401611306906136c2565b60405180910390fd5b611397565b6000600660008373ffffffffffffffffffffffffffffffffffffffff1673ffffffffffffffffffffffffffffffffffffffff1681526020019081526020016000205411611396576040517f08c379a000000000000000000000000000000000000000000000000000000000815260040161138d90613754565b60405180910390fd5b5b60006113a233612547565b9050600084826113b29190613d49565b90506113bd81611cae565b6113fc576040517f08c379a00000000000000000000000000000000000000000000000000000000081526004016113f390613e64565b60405180910390fd5b6002600660003373ffffffffffffffffffffffffffffffffffffffff1673ffffffffffffffffffffffffffffffffffffffff168152602001908152602001600020541461147e576040517f08c379a000000000000000000000000000000000000000000000000000000000815260040161147590613ef6565b60405180910390fd5b600360003373ffffffffffffffffffffffffffffffffffffffff1673ffffffffffffffffffffffffffffffffffffffff16815260200190815260200160002085815481106114cf576114ce613de9565b5b90600052602060002090600702016040518060e00160405290816000820180546114f8906137a3565b80601f0160208091040260200160405190810160405280929190818152602001828054611524906137a3565b80156115715780601f1061154657610100808354040283529160200191611571565b820191906000526020600020905b81548152906001019060200180831161155457829003601f168201915b5050505050815260200160018201805461158a906137a3565b80601f01602080910402602001604051908101604052809291908181526020018280546115b6906137a3565b80156116035780601f106115d857610100808354040283529160200191611603565b820191906000526020600020905b8154815290600101906020018083116115e657829003601f168201915b5050505050815260200160028201805461161c906137a3565b80601f0160208091040260200160405190810160405280929190818152602001828054611648906137a3565b80156116955780601f1061166a57610100808354040283529160200191611695565b820191906000526020600020905b81548152906001019060200180831161167857829003601f168201915b505050505081526020016003820180546116ae906137a3565b80601f01602080910402602001604051908101604052809291908181526020018280546116da906137a3565b80156117275780601f106116fc57610100808354040283529160200191611727565b820191906000526020600020905b81548152906001019060200180831161170a57829003601f168201915b50505050508152602001600482018054611740906137a3565b80601f016020809104026020016040519081016040528092919081815260200182805461176c906137a3565b80156117b95780601f1061178e576101008083540402835291602001916117b9565b820191906000526020600020905b81548152906001019060200180831161179c57829003601f168201915b505050505081526020016005820180546117d2906137a3565b80601f01602080910402602001604051908101604052809291908181526020018280546117fe906137a3565b801561184b5780601f106118205761010080835404028352916020019161184b565b820191906000526020600020905b81548152906001019060200180831161182e57829003601f168201915b505050505081526020016006820154815250509350505050919050565b6002602052816000526040600020818154811061188457600080fd5b9060005260206000209060070201600091509150508060000180546118a8906137a3565b80601f01602080910402602001604051908101604052809291908181526020018280546118d4906137a3565b80156119215780601f106118f657610100808354040283529160200191611921565b820191906000526020600020905b81548152906001019060200180831161190457829003601f168201915b505050505090806001018054611936906137a3565b80601f0160208091040260200160405190810160405280929190818152602001828054611962906137a3565b80156119af5780601f10611984576101008083540402835291602001916119af565b820191906000526020600020905b81548152906001019060200180831161199257829003601f168201915b5050505050908060020180546119c4906137a3565b80601f01602080910402602001604051908101604052809291908181526020018280546119f0906137a3565b8015611a3d5780601f10611a1257610100808354040283529160200191611a3d565b820191906000526020600020905b815481529060010190602001808311611a2057829003601f168201915b505050505090806003018054611a52906137a3565b80601f0160208091040260200160405190810160405280929190818152602001828054611a7e906137a3565b8015611acb5780601f10611aa057610100808354040283529160200191611acb565b820191906000526020600020905b815481529060010190602001808311611aae57829003601f168201915b505050505090806004018054611ae0906137a3565b80601f0160208091040260200160405190810160405280929190818152602001828054611b0c906137a3565b8015611b595780601f10611b2e57610100808354040283529160200191611b59565b820191906000526020600020905b815481529060010190602001808311611b3c57829003601f168201915b505050505090806005018054611b6e906137a3565b80601f0160208091040260200160405190810160405280929190818152602001828054611b9a906137a3565b8015611be75780601f10611bbc57610100808354040283529160200191611be7565b820191906000526020600020905b815481529060010190602001808311611bca57829003601f168201915b5050505050908060060154905087565b60003073ffffffffffffffffffffffffffffffffffffffff1663c9d3cbbf84846040518363ffffffff1660e01b8152600401611c349291906135ad565b600060405180830381600087803b158015611c4e57600080fd5b505af1925050508015611c5f575060015b611ca3577ff656b7aca913b35f16b5e5d40d766e8a297da46e3ae3a927ffb25783bd8f701182604051611c929190613622565b60405180910390a160009050611ca8565b600190505b92915050565b600080821115611cc15760019050611cc6565b600090505b919050565b600080600260008473ffffffffffffffffffffffffffffffffffffffff1673ffffffffffffffffffffffffffffffffffffffff16815260200190815260200160002080549050905080915050919050565b611d24612cfd565b838073ffffffffffffffffffffffffffffffffffffffff163373ffffffffffffffffffffffffffffffffffffffff1603611ddf576000600660008373ffffffffffffffffffffffffffffffffffffffff1673ffffffffffffffffffffffffffffffffffffffff1681526020019081526020016000205411611dda576040517f08c379a0000000000000000000000000000000000000000000000000000000008152600401611dd1906136c2565b60405180910390fd5b611e62565b6000600660008373ffffffffffffffffffffffffffffffffffffffff1673ffffffffffffffffffffffffffffffffffffffff1681526020019081526020016000205411611e61576040517f08c379a0000000000000000000000000000000000000000000000000000000008152600401611e5890613754565b60405180910390fd5b5b6000600e60008773ffffffffffffffffffffffffffffffffffffffff1673ffffffffffffffffffffffffffffffffffffffff1681526020019081526020016000205490508573ffffffffffffffffffffffffffffffffffffffff163373ffffffffffffffffffffffffffffffffffffffff1614611f1c57808414611f1b576040517f08c379a0000000000000000000000000000000000000000000000000000000008152600401611f1290613f62565b60405180910390fd5b5b6000611f2787611ccb565b905060008682611f379190613d49565b9050611f4281611cae565b611f81576040517f08c379a0000000000000000000000000000000000000000000000000000000008152600401611f7890613fce565b60405180910390fd5b6001600660008a73ffffffffffffffffffffffffffffffffffffffff1673ffffffffffffffffffffffffffffffffffffffff1681526020019081526020016000205414612003576040517f08c379a0000000000000000000000000000000000000000000000000000000008152600401611ffa9061403a565b60405180910390fd5b600260008973ffffffffffffffffffffffffffffffffffffffff1673ffffffffffffffffffffffffffffffffffffffff168152602001908152602001600020878154811061205457612053613de9565b5b90600052602060002090600702016040518060e001604052908160008201805461207d906137a3565b80601f01602080910402602001604051908101604052809291908181526020018280546120a9906137a3565b80156120f65780601f106120cb576101008083540402835291602001916120f6565b820191906000526020600020905b8154815290600101906020018083116120d957829003601f168201915b5050505050815260200160018201805461210f906137a3565b80601f016020809104026020016040519081016040528092919081815260200182805461213b906137a3565b80156121885780601f1061215d57610100808354040283529160200191612188565b820191906000526020600020905b81548152906001019060200180831161216b57829003601f168201915b505050505081526020016002820180546121a1906137a3565b80601f01602080910402602001604051908101604052809291908181526020018280546121cd906137a3565b801561221a5780601f106121ef5761010080835404028352916020019161221a565b820191906000526020600020905b8154815290600101906020018083116121fd57829003601f168201915b50505050508152602001600382018054612233906137a3565b80601f016020809104026020016040519081016040528092919081815260200182805461225f906137a3565b80156122ac5780601f10612281576101008083540402835291602001916122ac565b820191906000526020600020905b81548152906001019060200180831161228f57829003601f168201915b505050505081526020016004820180546122c5906137a3565b80601f01602080910402602001604051908101604052809291908181526020018280546122f1906137a3565b801561233e5780601f106123135761010080835404028352916020019161233e565b820191906000526020600020905b81548152906001019060200180831161232157829003601f168201915b50505050508152602001600582018054612357906137a3565b80601f0160208091040260200160405190810160405280929190818152602001828054612383906137a3565b80156123d05780601f106123a5576101008083540402835291602001916123d0565b820191906000526020600020905b8154815290600101906020018083116123b357829003601f168201915b505050505081526020016006820154815250509450505050509392505050565b600080600560008473ffffffffffffffffffffffffffffffffffffffff1673ffffffffffffffffffffffffffffffffffffffff16815260200190815260200160002080549050905080915050919050565b60008273ffffffffffffffffffffffffffffffffffffffff163373ffffffffffffffffffffffffffffffffffffffff16146124b1576040517f08c379a00000000000000000000000000000000000000000000000000000000081526004016124a8906140cc565b60405180910390fd5b81600e60008573ffffffffffffffffffffffffffffffffffffffff1673ffffffffffffffffffffffffffffffffffffffff168152602001908152602001600020819055506001905092915050565b80600660008473ffffffffffffffffffffffffffffffffffffffff1673ffffffffffffffffffffffffffffffffffffffff168152602001908152602001600020819055505050565b600080600360008473ffffffffffffffffffffffffffffffffffffffff1673ffffffffffffffffffffffffffffffffffffffff16815260200190815260200160002080549050905080915050919050565b600080600360008473ffffffffffffffffffffffffffffffffffffffff1673ffffffffffffffffffffffffffffffffffffffff16815260200190815260200160002080549050905080915050919050565b6000804290506040518060e00160405280898152602001888152602001878152602001868152602001858152602001848152602001828152506007600082015181600001908161263991906140ec565b50602082015181600101908161264f91906140ec565b50604082015181600201908161266591906140ec565b50606082015181600301908161267b91906140ec565b50608082015181600401908161269191906140ec565b5060a08201518160050190816126a791906140ec565b5060c0820151816006015590505060019150509695505050505050565b60106020528060005260406000206000915090505481565b6126e4612cfd565b6000600e60008673ffffffffffffffffffffffffffffffffffffffff1673ffffffffffffffffffffffffffffffffffffffff16815260200190815260200160002054905061273181611cae565b612770576040517f08c379a000000000000000000000000000000000000000000000000000000000815260040161276790614230565b60405180910390fd5b6000600e60008773ffffffffffffffffffffffffffffffffffffffff1673ffffffffffffffffffffffffffffffffffffffff1681526020019081526020016000205490508085146127f6576040517f08c379a00000000000000000000000000000000000000000000000000000000081526004016127ed9061429c565b60405180910390fd5b600460003373ffffffffffffffffffffffffffffffffffffffff1673ffffffffffffffffffffffffffffffffffffffff168152602001908152602001600020869080600181540180825580915050600190039060005260206000200160009091909190916101000a81548173ffffffffffffffffffffffffffffffffffffffff021916908373ffffffffffffffffffffffffffffffffffffffff1602179055506128a1868587611d1c565b925050509392505050565b60606002600660003373ffffffffffffffffffffffffffffffffffffffff1673ffffffffffffffffffffffffffffffffffffffff168152602001908152602001600020541015612931576040517f08c379a00000000000000000000000000000000000000000000000000000000081526004016129289061432e565b60405180910390fd5b600460003373ffffffffffffffffffffffffffffffffffffffff1673ffffffffffffffffffffffffffffffffffffffff1681526020019081526020016000208054806020026020016040519081016040528092919081815260200182805480156129f057602002820191906000526020600020905b8160009054906101000a900473ffffffffffffffffffffffffffffffffffffffff1673ffffffffffffffffffffffffffffffffffffffff16815260200190600101908083116129a6575b5050505050905090565b60016020528060005260406000206000915054906101000a900473ffffffffffffffffffffffffffffffffffffffff1681565b6000818073ffffffffffffffffffffffffffffffffffffffff163373ffffffffffffffffffffffffffffffffffffffff1603612aea576000600660008373ffffffffffffffffffffffffffffffffffffffff1673ffffffffffffffffffffffffffffffffffffffff1681526020019081526020016000205411612ae5576040517f08c379a0000000000000000000000000000000000000000000000000000000008152600401612adc906136c2565b60405180910390fd5b612b6d565b6000600660008373ffffffffffffffffffffffffffffffffffffffff1673ffffffffffffffffffffffffffffffffffffffff1681526020019081526020016000205411612b6c576040517f08c379a0000000000000000000000000000000000000000000000000000000008152600401612b6390613754565b60405180910390fd5b5b6000600660008573ffffffffffffffffffffffffffffffffffffffff1673ffffffffffffffffffffffffffffffffffffffff1681526020019081526020016000205490508092505050919050565b600073ffffffffffffffffffffffffffffffffffffffff168173ffffffffffffffffffffffffffffffffffffffff1611612bf457600080fd5b6001600f60008373ffffffffffffffffffffffffffffffffffffffff1673ffffffffffffffffffffffffffffffffffffffff16815260200190815260200160002054612c409190613d15565b600f60008373ffffffffffffffffffffffffffffffffffffffff1673ffffffffffffffffffffffffffffffffffffffff1681526020019081526020016000208190555050565b508054612c92906137a3565b6000825580601f10612ca45750612cc3565b601f016020900490600052602060002090810190612cc29190612d3a565b5b50565b6040518060600160405280600073ffffffffffffffffffffffffffffffffffffffff16815260200160008152602001600081525090565b6040518060e00160405280606081526020016060815260200160608152602001606081526020016060815260200160608152602001600081525090565b5b80821115612d53576000816000905550600101612d3b565b5090565b6000604051905090565b600080fd5b600080fd5b6000819050919050565b612d7e81612d6b565b8114612d8957600080fd5b50565b600081359050612d9b81612d75565b92915050565b600060208284031215612db757612db6612d61565b5b6000612dc584828501612d8c565b91505092915050565b60008115159050919050565b612de381612dce565b82525050565b6000602082019050612dfe6000830184612dda565b92915050565b600073ffffffffffffffffffffffffffffffffffffffff82169050919050565b6000612e2f82612e04565b9050919050565b612e3f81612e24565b8114612e4a57600080fd5b50565b600081359050612e5c81612e36565b92915050565b60008060408385031215612e7957612e78612d61565b5b6000612e8785828601612e4d565b9250506020612e9885828601612d8c565b9150509250929050565b600080600060608486031215612ebb57612eba612d61565b5b6000612ec986828701612e4d565b9350506020612eda86828701612e4d565b9250506040612eeb86828701612d8c565b9150509250925092565b600060208284031215612f0b57612f0a612d61565b5b6000612f1984828501612e4d565b91505092915050565b612f2b81612d6b565b82525050565b6000602082019050612f466000830184612f22565b92915050565b612f5581612e24565b82525050565b6000606082019050612f706000830186612f4c565b612f7d6020830185612f22565b612f8a6040830184612f22565b949350505050565b600081519050919050565b600082825260208201905092915050565b60005b83811015612fcc578082015181840152602081019050612fb1565b60008484015250505050565b6000601f19601f8301169050919050565b6000612ff482612f92565b612ffe8185612f9d565b935061300e818560208601612fae565b61301781612fd8565b840191505092915050565b61302b81612d6b565b82525050565b600060e083016000830151848203600086015261304e8282612fe9565b915050602083015184820360208601526130688282612fe9565b915050604083015184820360408601526130828282612fe9565b9150506060830151848203606086015261309c8282612fe9565b915050608083015184820360808601526130b68282612fe9565b91505060a083015184820360a08601526130d08282612fe9565b91505060c08301516130e560c0860182613022565b508091505092915050565b6000602082019050818103600083015261310a8184613031565b905092915050565b600082825260208201905092915050565b600061312e82612f92565b6131388185613112565b9350613148818560208601612fae565b61315181612fd8565b840191505092915050565b600060e0820190508181036000830152613176818a613123565b9050818103602083015261318a8189613123565b9050818103604083015261319e8188613123565b905081810360608301526131b28187613123565b905081810360808301526131c68186613123565b905081810360a08301526131da8185613123565b90506131e960c0830184612f22565b98975050505050505050565b60008060006060848603121561320e5761320d612d61565b5b600061321c86828701612e4d565b935050602061322d86828701612d8c565b925050604061323e86828701612d8c565b9150509250925092565b600080fd5b600080fd5b7f4e487b7100000000000000000000000000000000000000000000000000000000600052604160045260246000fd5b61328a82612fd8565b810181811067ffffffffffffffff821117156132a9576132a8613252565b5b80604052505050565b60006132bc612d57565b90506132c88282613281565b919050565b600067ffffffffffffffff8211156132e8576132e7613252565b5b6132f182612fd8565b9050602081019050919050565b82818337600083830152505050565b600061332061331b846132cd565b6132b2565b90508281526020810184848401111561333c5761333b61324d565b5b6133478482856132fe565b509392505050565b600082601f83011261336457613363613248565b5b813561337484826020860161330d565b91505092915050565b60008060008060008060c0878903121561339a57613399612d61565b5b600087013567ffffffffffffffff8111156133b8576133b7612d66565b5b6133c489828a0161334f565b965050602087013567ffffffffffffffff8111156133e5576133e4612d66565b5b6133f189828a0161334f565b955050604087013567ffffffffffffffff81111561341257613411612d66565b5b61341e89828a0161334f565b945050606087013567ffffffffffffffff81111561343f5761343e612d66565b5b61344b89828a0161334f565b935050608087013567ffffffffffffffff81111561346c5761346b612d66565b5b61347889828a0161334f565b92505060a087013567ffffffffffffffff81111561349957613498612d66565b5b6134a589828a0161334f565b9150509295509295509295565b600081519050919050565b600082825260208201905092915050565b6000819050602082019050919050565b6134e781612e24565b82525050565b60006134f983836134de565b60208301905092915050565b6000602082019050919050565b600061351d826134b2565b61352781856134bd565b9350613532836134ce565b8060005b8381101561356357815161354a88826134ed565b975061355583613505565b925050600181019050613536565b5085935050505092915050565b6000602082019050818103600083015261358a8184613512565b905092915050565b60006020820190506135a76000830184612f4c565b92915050565b60006040820190506135c26000830185612f4c565b6135cf6020830184612f22565b9392505050565b7f4661696c656420546f20536574204465706172746d656e740000000000000000600082015250565b600061360c601883613112565b9150613617826135d6565b602082019050919050565b6000604082019050818103600083015261363b816135ff565b905061364a6020830184612f22565b92915050565b7f4d73672053656e6465722773204465706172746d656e74204e6f74205365742860008201527f66726f6d206d6f64696669657229000000000000000000000000000000000000602082015250565b60006136ac602e83613112565b91506136b782613650565b604082019050919050565b600060208201905081810360008301526136db8161369f565b9050919050565b7f55736572204465706172746d656e74204e6f74205365742866726f6d206d6f6460008201527f6966696572290000000000000000000000000000000000000000000000000000602082015250565b600061373e602683613112565b9150613749826136e2565b604082019050919050565b6000602082019050818103600083015261376d81613731565b9050919050565b7f4e487b7100000000000000000000000000000000000000000000000000000000600052602260045260246000fd5b600060028204905060018216806137bb57607f821691505b6020821081036137ce576137cd613774565b5b50919050565b7f4365727469666963617465204e6f742043726561746564000000000000000000600082015250565b600061380a601783613112565b9150613815826137d4565b602082019050919050565b60006020820190508181036000830152613839816137fd565b9050919050565b7f55736572204973204e6f7420417574686f72697a6564204465706172746d656e60008201527f7420746f204d696e740000000000000000000000000000000000000000000000602082015250565b600061389c602983613112565b91506138a782613840565b604082019050919050565b600060208201905081810360008301526138cb8161388f565b9050919050565b6000815490506138e1816137a3565b9050919050565b60008190508160005260206000209050919050565b60006020601f8301049050919050565b600082821b905092915050565b60006008830261394a7fffffffffffffffffffffffffffffffffffffffffffffffffffffffffffffffff8261390d565b613954868361390d565b95508019841693508086168417925050509392505050565b6000819050919050565b600061399161398c61398784612d6b565b61396c565b612d6b565b9050919050565b6000819050919050565b6139ab83613976565b6139bf6139b782613998565b84845461391a565b825550505050565b600090565b6139d46139c7565b6139df8184846139a2565b505050565b5b81811015613a03576139f86000826139cc565b6001810190506139e5565b5050565b601f821115613a4857613a19816138e8565b613a22846138fd565b81016020851015613a31578190505b613a45613a3d856138fd565b8301826139e4565b50505b505050565b600082821c905092915050565b6000613a6b60001984600802613a4d565b1980831691505092915050565b6000613a848383613a5a565b9150826002028217905092915050565b818103613aa2575050613b7a565b613aab826138d2565b67ffffffffffffffff811115613ac457613ac3613252565b5b613ace82546137a3565b613ad9828285613a07565b6000601f831160018114613b085760008415613af6578287015490505b613b008582613a78565b865550613b73565b601f198416613b16876138e8565b9650613b21866138e8565b60005b82811015613b4957848901548255600182019150600185019450602081019050613b24565b86831015613b665784890154613b62601f891682613a5a565b8355505b6001600288020188555050505b5050505050505b565b7f66726f6d20213d206d73672e73656e6465720000000000000000000000000000600082015250565b6000613bb2601283613112565b9150613bbd82613b7c565b602082019050919050565b60006020820190508181036000830152613be181613ba5565b9050919050565b7f43757272656e7420557365722043616e27742041636365707420446f6e61746960008201527f6f6e284e6f742061206e6f726d616c2075736572290000000000000000000000602082015250565b6000613c44603583613112565b9150613c4f82613be8565b604082019050919050565b60006020820190508181036000830152613c7381613c37565b9050919050565b7f746f6b656e206973206e6f7420656e6f75676800000000000000000000000000600082015250565b6000613cb0601383613112565b9150613cbb82613c7a565b602082019050919050565b60006020820190508181036000830152613cdf81613ca3565b9050919050565b7f4e487b7100000000000000000000000000000000000000000000000000000000600052601160045260246000fd5b6000613d2082612d6b565b9150613d2b83612d6b565b9250828201905080821115613d4357613d42613ce6565b5b92915050565b6000613d5482612d6b565b9150613d5f83612d6b565b9250828203905081811115613d7757613d76613ce6565b5b92915050565b7f446f6e6174696f6e205265636f726420536561726368204f766572466c6f7700600082015250565b6000613db3601f83613112565b9150613dbe82613d7d565b602082019050919050565b60006020820190508181036000830152613de281613da6565b9050919050565b7f4e487b7100000000000000000000000000000000000000000000000000000000600052603260045260246000fd5b7f4d696e74205265636f726420536561726368204f766572466c6f770000000000600082015250565b6000613e4e601b83613112565b9150613e5982613e18565b602082019050919050565b60006020820190508181036000830152613e7d81613e41565b9050919050565b7f43757272656e742055736572206973204e6f742061204365727469666965642060008201527f4f7267616e697a6174696f6e0000000000000000000000000000000000000000602082015250565b6000613ee0602c83613112565b9150613eeb82613e84565b604082019050919050565b60006020820190508181036000830152613f0f81613ed3565b9050919050565b7f496e76616c6964204365727469666963617465204e756d626572000000000000600082015250565b6000613f4c601a83613112565b9150613f5782613f16565b602082019050919050565b60006020820190508181036000830152613f7b81613f3f565b9050919050565b7f436572746966696361746520536561726368204f766572466c6f770000000000600082015250565b6000613fb8601b83613112565b9150613fc382613f82565b602082019050919050565b60006020820190508181036000830152613fe781613fab565b9050919050565b7f43757272656e742055736572206973204e6f7420612055736572000000000000600082015250565b6000614024601a83613112565b915061402f82613fee565b602082019050919050565b6000602082019050818103600083015261405381614017565b9050919050565b7f4f6e6c792041646472657373204f776e657220616c6c6f77656420746f20736560008201527f7420496e71756972792050570000000000000000000000000000000000000000602082015250565b60006140b6602c83613112565b91506140c18261405a565b604082019050919050565b600060208201905081810360008301526140e5816140a9565b9050919050565b6140f582612f92565b67ffffffffffffffff81111561410e5761410d613252565b5b61411882546137a3565b614123828285613a07565b600060209050601f8311600181146141565760008415614144578287015190505b61414e8582613a78565b8655506141b6565b601f198416614164866138e8565b60005b8281101561418c57848901518255600182019150602085019450602081019050614167565b868310156141a957848901516141a5601f891682613a5a565b8355505b6001600288020188555050505b505050505050565b7f496e71756972792050617373776f726420666f7220557365722773204164647260008201527f657373206973206e6f7420536574000000000000000000000000000000000000602082015250565b600061421a602e83613112565b9150614225826141be565b604082019050919050565b600060208201905081810360008301526142498161420d565b9050919050565b7f496e76616c696420496e71756972792050617373776f72640000000000000000600082015250565b6000614286601883613112565b915061429182614250565b602082019050919050565b600060208201905081810360008301526142b581614279565b9050919050565b7f55736572204e6f7420416c6c6f77656420546f20436865636b20496e7175697260008201527f795265636f726400000000000000000000000000000000000000000000000000602082015250565b6000614318602783613112565b9150614323826142bc565b604082019050919050565b600060208201905081810360008301526143478161430b565b905091905056fea264697066735822122006457dd2b5d4b5e85980a1ea1d079527d66acdadbe041b90f5dec9f4f6e1de7764736f6c63430008120033",
  "immutableReferences": {},
  "source": "// SPDX-License-Identifier: GPL-3.0\npragma solidity >= 0.7.0 <=0.9.0;\n// pragma experimental ABIEncoderV2;\n// evm version : byzantium\n\n//    ( account =>    ) ( Certificate Struct )\n\ncontract plowSmartContract {\n\n    // string public contract_function = \"P:LOW Minting Contract\";\n\n    address deployerAddress;\n\n    constructor(){\n        deployerAddress = msg.sender;\n    }\n\n    // \n    struct Certificate {\n        string name;\n        string id;\n        string bloodType;\n        string home_address;\n        string certificateNum;\n        string donateType;\n        uint date; // UNIX Time =>      \n    }\n    \n    struct DonationCertificate {\n        address donate_to;\n        uint date;\n        uint256 donate_count;\n    }\n\n    modifier checkDepartment(address _userAddress){\n        if(msg.sender == _userAddress){\n            require(userDepartment[_userAddress]>0,\"Msg Sender's Department Not Set(from modifier)\");\n        } else{\n            require(userDepartment[_userAddress]>0,\"User Department Not Set(from modifier)\");\n        }\n        _;\n    }\n\n    modifier checkAdmin(address _userAddress){\n        require(_userAddress == deployerAddress,\"Msg Sender is Not a Deployer\");\n        _;\n    }\n\n    // certificateNum table\n    mapping(uint256 => address) public certificateOwner;\n    \n    // mapping(address => uint256[]) private _ownedTokens;\n\n    // test  private => public  \n    mapping(address => Certificate[]) public ownedCerts;\n    //        \n    mapping(address => Certificate[]) private departmentMintedRecord;\n    //     \n    mapping(address => address[]) private inquiryRecord; \n    //    \n    mapping(address => DonationCertificate[]) private DonationRecord;\n    //    table\n    mapping(address => uint) private userDepartment;\n\n    //   code : 1\n    //   code : 2\n    //   code : 3\n\n    function setDepartmentInternal(address _userAddress,uint256 _department) public {\n        userDepartment[_userAddress] = _department;\n    }\n\n    // event for setDeparment\n    event setDepartmentError(string _errMsg, uint256 _department);\n\n    //   function setDepartment    .\n        // if true  =>  \n    // Account Validation lower layer       .\n    //  setDepartment  department set \n    function setDepartment(uint256 _department) public returns(bool){\n        try this.setDepartmentInternal(msg.sender,_department){ // this    \n            return(true);\n        } catch {\n            emit setDepartmentError(\"Failed To Set Department\", _department); // Solidity print   emit(with event)\n            return (false);\n        }\n    }\n\n    // Admin   constructor    department \n    //    \n    function AdminSetDepartment(address _userAddress, uint256 _department) public returns(bool){\n        try this.setDepartmentInternal(_userAddress,_department){ // this    \n            return(true);\n        } catch {\n            emit setDepartmentError(\"Failed To Set Department\", _department); \n            return (false);\n        }\n    }\n\n    // get Department Number\n    function getDepartment(address _userAddress) public checkDepartment( _userAddress ) view returns(uint){\n        uint departmentNum = userDepartment[_userAddress];\n        return departmentNum;\n    }\n\n    // certificate struct instance \n    Certificate dummyCert_struct;\n\n    // returning Structure is Experimental\n    function createCertificate(\n        string memory _name, \n        string memory _id, \n        string memory _bloodType, \n        string memory _home_address,\n        string memory _certificateNum,\n        string memory _donateType) public returns(bool) {\n        //require    \n        // msg.sender ==     \n        uint _date = block.timestamp;\n        dummyCert_struct = Certificate(_name,_id,_bloodType,_home_address,_certificateNum,_donateType,_date);\n        return true;\n    }\n\n    //   () length return\n    //  function     require\n    //  user_CertLength ==> getCertificateCount\n    function getCertificateCount(address _userAddress) public view returns(uint256){\n        uint256 cert_quantity = ownedCerts[_userAddress].length;\n        return cert_quantity;\n    }\n\n    //       Count\n    function getMintRecordCount(address _userAddress) public view returns(uint256){\n        uint256 cert_quantity = departmentMintedRecord[_userAddress].length;\n        return cert_quantity;\n    }\n\n    //        \n    function getInquiryRecordCount(address _userAddress) public view returns(uint256){\n        uint256 cert_quantity = departmentMintedRecord[_userAddress].length;\n        return cert_quantity;\n    }\n\n    //     n     return\n\n    function getCertData(address _userAddress, uint256 _num, uint256 _InquiryPW) public checkDepartment(_userAddress) view returns(Certificate memory){\n        \n        //    Address_Cert table   key valid_Cert \n        uint256 valid_Cert = Address_PW[_userAddress];\n        \n        //    getCertData   \n        if(msg.sender != _userAddress){\n            //   cert num == valid_Cert     NFT  return\n            require(_InquiryPW == valid_Cert, \"Invalid Certificate Number\");\n        }\n\n        //   cert_len    certificate    Error Handling\n        uint256 cert_len = getCertificateCount(_userAddress);\n        // uint256   256   cert_len - _num           int64 \n        uint256 result = cert_len - _num;\n        require(checkExistence(result),\"Certificate Search OverFlow\");\n\n        // n     return\n\n        // department code 1 => Normal User\n        require(userDepartment[_userAddress] == 1, \"Current User is Not a User\");\n\n        return ownedCerts[_userAddress][_num];\n\n    }\n\n    //       return\n    function getMintData(uint256 _num) public checkDepartment(msg.sender) view returns(Certificate memory){\n\n        //        get\n \n        //   cert_len    certificate    Error Handling\n        uint256 cert_len = getMintRecordCount(msg.sender);\n        // uint256   256   cert_len - _num           int64 \n        // int64 result = int64((uint64(cert_len - _num)));\n        uint256 result = cert_len - _num;\n        require(checkExistence(result),\"Mint Record Search OverFlow\");\n\n        // n     return\n\n        // department code 2 =>   \n        require(userDepartment[msg.sender] == 2, \"Current User is Not a Certified Organization\");\n\n        return departmentMintedRecord[msg.sender][_num];\n    }\n\n    // department == 3        address[] array return [  ,  ,...,]\n    //     \n    function getInquiryData() public view returns(address[] memory user_inquiryHistory){\n        require(userDepartment[msg.sender] >= 2, \"User Not Allowed To Check InquiryRecord\"); // 2,3    ,   department code\n        // user_inquiryHistory 0  return     .\n        user_inquiryHistory = inquiryRecord[msg.sender];\n        return user_inquiryHistory;\n    }\n\n    function checkExistence(uint256 check_num) public pure returns (bool){\n        if(check_num > 0){\n            return true;\n        } else {\n            return false;\n        }\n    }\n\n    //   Certificate_Arr       \n    // Certificate certificateNum   \n    function mintCert(address _to, uint256 _certificateNum) public checkDepartment(msg.sender) checkDepartment(_to) returns(bool) {\n        // msg : experimental\n        // require(Check_Existence2(dummyCert_struct),\"Certificate Structure Not Created\");\n        \n        // result = bytes(dummyCert_struct.id).length; //   0\n        require(checkExistence(uint256(bytes(dummyCert_struct.id).length)),\"Certificate Not Created\");\n        require(userDepartment[msg.sender] == 3,\"User Is Not Authorized Department to Mint\");\n        \n        // certificate id     ...\n        certificateOwner[_certificateNum] = _to;\n\n        //  address key   struct list dummyCert_struct push.\n        ownedCerts[_to].push(dummyCert_struct);\n        departmentMintedRecord[msg.sender].push(dummyCert_struct);\n\n        delete dummyCert_struct;  // minting  dummy   \n\n        //     increment\n        tokenIncrement(_to);\n        \n        return true;\n    }\n\n    /////////////////\n\n    //       Function\n        \n    //  =>    (InquiryPW) table\n    \n    // ------TEST----- Address_PW  public \n    mapping(address => uint256) public Address_PW;\n\n    //       \n    // mapping(address => ) private White_List;\n\n    //        = certificate  \n    function setInquiryPW(address _to, uint256 _Inquiry_PW) public returns(bool){\n        require(msg.sender==_to,\"Only Address Owner allowed to set Inquiry PW\");\n        Address_PW[_to] = _Inquiry_PW;\n        return true;\n    }\n\n    // valid_Cert    =>      \n    //    return   experimental  -> ,,,\n    //   InquiryTo       whitelist  ?,,\n\n    // department id ==> 2      Function\n    function InquiryTo(address _to, uint256 _InquiryPW,uint256 _num ) public returns (Certificate memory){ // returns(Certificate[] memory)\n        //       valid certificate number  \n\n        // InquiryPW   \n        uint256 exist = uint256(Address_PW[_to]);\n        require(checkExistence(exist),\"Inquiry Password for User's Address is not Set\");\n        // require(Address_Cert[to]>0,\"Certificate Number for User's Address is not Set\");\n        \n        // //    Address_Cert table   key valid_Cert \n        uint256 valid_Cert = Address_PW[_to];\n        \n        // //   cert num == valid_Cert     NFT  return\n        require(_InquiryPW == valid_Cert, \"Invalid Inquiry Password\");\n        //   key      push\n        inquiryRecord[msg.sender].push(_to);\n\n        return getCertData(_to,_num,_InquiryPW);\n    }\n\n\n    ////////////////////\n\n    //   function\n    //  count function\n\n    //_from  , _to   , _tokenCount  \n    mapping(address => uint256) public balances; //  \n    mapping(address => uint256) public only_use_balances; //   \n    \n    //   function\n    function transferFrom(address _from, address _to, uint256 _tokenCount) public {\n        require(_from > address(0)); // 0x00... \n        require(_to > address(0));\n        require(_from == msg.sender, \"from != msg.sender\"); //  sender.\n        require(userDepartment[_to] == 1,\"Current User Can't Accept Donation(Not a normal user)\");\n        require(balances[_from] >= _tokenCount, \"token is not enough\"); //      ok\n        require(balances[_to] + _tokenCount > balances[_to]); //   +      ok\n    \n        balances[_from] = balances[_from] - _tokenCount; //      \n        only_use_balances[_to] = only_use_balances[_to] + _tokenCount; //      \n        \n        DonationCertificate memory DC_Instance;\n        // Doncation Certificate Instance DonationRecord push\n        DC_Instance = DonationCertificate(_to,block.timestamp,_tokenCount);\n        DonationRecord[msg.sender].push(DC_Instance);\n    }\n    \n    // WIP 11.18\n    function getDonationRecord(uint256 _num) public view returns(address to,uint DonateTime,uint256 tokenCount){\n        DonationCertificate memory Individual_Instance;\n        // require DonationRecord   \n        require(_num < getDonationCount(msg.sender),\"Donation Record Search OverFlow\");\n        \n        Individual_Instance = DonationRecord[msg.sender][_num];\n        to = Individual_Instance.donate_to;\n        DonateTime = Individual_Instance.date;\n        tokenCount = Individual_Instance.donate_count;\n\n    }\n\n    function getDonationCount(address _userAddress) public view returns(uint256){\n        uint256 cert_quantity = DonationRecord[_userAddress].length;\n        return cert_quantity;\n    }\n\n\n    //   (  )  \n    function tokenIncrement(address _to) private { //   tokenCount 1 \n        require(_to > address(0)); //    check\n        //      anomaly\n        balances[_to] = balances[_to] + 1;\n    }\n\n}",
  "sourcePath": "/Users/seojune/Desktop/22-2/22_paran_plow/paran_github/paran_bloodchain/truffle_deploy/contracts/plowSmartContract.sol",
  "compiler": {
    "name": "solc",
    "version": "0.8.18+commit.87f61d96.Emscripten.clang"
  },
  "schemaVersion": "3.4.13",
  "updatedAt": "2023-03-19T14:16:25.642Z",
  "devdoc": {
    "kind": "dev",
    "methods": {},
    "version": 1
  },
  "userdoc": {
    "kind": "user",
    "methods": {},
    "version": 1
  }
}